{
  "contractName": "AssetTracker",
  "abi": [
    {
      "anonymous": false,
      "inputs": [
        {
          "indexed": false,
          "internalType": "address",
          "name": "manufacturer",
          "type": "address"
        },
        {
          "indexed": false,
          "internalType": "string",
          "name": "uuid",
          "type": "string"
        },
        {
          "indexed": false,
          "internalType": "address",
          "name": "location",
          "type": "address"
        }
      ],
      "name": "AssetCreate",
      "type": "event"
    },
    {
      "anonymous": false,
      "inputs": [
        {
          "indexed": false,
          "internalType": "address",
          "name": "from",
          "type": "address"
        },
        {
          "indexed": false,
          "internalType": "address",
          "name": "to",
          "type": "address"
        },
        {
          "indexed": false,
          "internalType": "string",
          "name": "uuid",
          "type": "string"
        },
        {
          "indexed": false,
          "internalType": "uint256",
          "name": "time",
          "type": "uint256"
        }
      ],
      "name": "AssetTransfer",
      "type": "event"
    },
    {
      "constant": false,
      "inputs": [
        {
          "internalType": "string",
          "name": "name",
          "type": "string"
        },
        {
          "internalType": "string",
          "name": "description",
          "type": "string"
        },
        {
          "internalType": "string",
          "name": "uuid",
          "type": "string"
        }
      ],
      "name": "createAsset",
      "outputs": [],
      "payable": false,
      "stateMutability": "nonpayable",
      "type": "function"
    },
    {
      "constant": false,
      "inputs": [
        {
          "internalType": "address",
          "name": "to",
          "type": "address"
        },
        {
          "internalType": "string",
          "name": "uuid",
          "type": "string"
        }
      ],
      "name": "manu",
      "outputs": [],
      "payable": false,
      "stateMutability": "nonpayable",
      "type": "function"
    },
    {
      "constant": false,
      "inputs": [
        {
          "internalType": "address",
          "name": "to",
          "type": "address"
        },
        {
          "internalType": "string",
          "name": "uuid",
          "type": "string"
        }
      ],
      "name": "stockhouse",
      "outputs": [],
      "payable": false,
      "stateMutability": "nonpayable",
      "type": "function"
    },
    {
      "constant": false,
      "inputs": [
        {
          "internalType": "address",
          "name": "to",
          "type": "address"
        },
        {
          "internalType": "string",
          "name": "uuid",
          "type": "string"
        }
      ],
      "name": "wholsaler",
      "outputs": [],
      "payable": false,
      "stateMutability": "nonpayable",
      "type": "function"
    },
    {
      "constant": false,
      "inputs": [
        {
          "internalType": "address",
          "name": "to",
          "type": "address"
        },
        {
          "internalType": "string",
          "name": "uuid",
          "type": "string"
        }
      ],
      "name": "retailer",
      "outputs": [],
      "payable": false,
      "stateMutability": "nonpayable",
      "type": "function"
    },
    {
      "constant": false,
      "inputs": [
        {
          "internalType": "address",
          "name": "to",
          "type": "address"
        },
        {
          "internalType": "string",
          "name": "uuid",
          "type": "string"
        }
      ],
      "name": "Customer",
      "outputs": [],
      "payable": false,
      "stateMutability": "nonpayable",
      "type": "function"
    },
    {
      "constant": true,
      "inputs": [
        {
          "internalType": "string",
          "name": "uuid",
          "type": "string"
        }
      ],
      "name": "name",
      "outputs": [
        {
          "internalType": "string",
          "name": "",
          "type": "string"
        }
      ],
      "payable": false,
      "stateMutability": "view",
      "type": "function"
    },
    {
      "constant": true,
      "inputs": [
        {
          "internalType": "string",
          "name": "uuid",
          "type": "string"
        }
      ],
      "name": "Description",
      "outputs": [
        {
          "internalType": "string",
          "name": "",
          "type": "string"
        }
      ],
      "payable": false,
      "stateMutability": "view",
      "type": "function"
    },
    {
      "constant": true,
      "inputs": [
        {
          "internalType": "string",
          "name": "uuid",
          "type": "string"
        }
      ],
      "name": "Owner",
      "outputs": [
        {
          "internalType": "address",
          "name": "",
          "type": "address"
        },
        {
          "internalType": "uint256",
          "name": "",
          "type": "uint256"
        }
      ],
      "payable": false,
      "stateMutability": "view",
      "type": "function"
    },
    {
      "constant": true,
      "inputs": [
        {
          "internalType": "string",
          "name": "uuid",
          "type": "string"
        }
      ],
      "name": "manus",
      "outputs": [
        {
          "internalType": "address",
          "name": "",
          "type": "address"
        },
        {
          "internalType": "uint256",
          "name": "",
          "type": "uint256"
        }
      ],
      "payable": false,
      "stateMutability": "view",
      "type": "function"
    },
    {
      "constant": true,
      "inputs": [
        {
          "internalType": "string",
          "name": "uuid",
          "type": "string"
        }
      ],
      "name": "stocks",
      "outputs": [
        {
          "internalType": "address",
          "name": "",
          "type": "address"
        },
        {
          "internalType": "uint256",
          "name": "",
          "type": "uint256"
        }
      ],
      "payable": false,
      "stateMutability": "view",
      "type": "function"
    },
    {
      "constant": true,
      "inputs": [
        {
          "internalType": "string",
          "name": "uuid",
          "type": "string"
        }
      ],
      "name": "wholee",
      "outputs": [
        {
          "internalType": "address",
          "name": "",
          "type": "address"
        },
        {
          "internalType": "uint256",
          "name": "",
          "type": "uint256"
        }
      ],
      "payable": false,
      "stateMutability": "view",
      "type": "function"
    },
    {
      "constant": true,
      "inputs": [
        {
          "internalType": "string",
          "name": "uuid",
          "type": "string"
        }
      ],
      "name": "reta",
      "outputs": [
        {
          "internalType": "address",
          "name": "",
          "type": "address"
        },
        {
          "internalType": "uint256",
          "name": "",
          "type": "uint256"
        }
      ],
      "payable": false,
      "stateMutability": "view",
      "type": "function"
    },
    {
      "constant": true,
      "inputs": [
        {
          "internalType": "string",
          "name": "uuid",
          "type": "string"
        }
      ],
      "name": "Customers",
      "outputs": [
        {
          "internalType": "address",
          "name": "",
          "type": "address"
        },
        {
          "internalType": "uint256",
          "name": "",
          "type": "uint256"
        }
      ],
      "payable": false,
      "stateMutability": "view",
      "type": "function"
    }
  ],
  "bytecode": "0x608060405234801561001057600080fd5b50612cff806100206000396000f3fe608060405234801561001057600080fd5b50600436106100ea5760003560e01c80638514e9871161008c578063a6e084f611610066578063a6e084f614610b19578063b056b4b714610bf4578063de58d15614610ccf578063e8113f9d14610eb8576100ea565b80638514e987146108085780638bcd33bd1461090a578063a19a7cb114610a3e576100ea565b80633f9d28f1116100c85780633f9d28f1146103ce5780635b43bc99146104d05780636b94c9ac14610604578063772e30b814610706576100ea565b8063265bd0b3146100ef5780632efae33e146101f157806338054964146102f3575b600080fd5b6101a86004803603602081101561010557600080fd5b810190808035906020019064010000000081111561012257600080fd5b82018360208201111561013457600080fd5b8035906020019184600183028401116401000000008311171561015657600080fd5b91908080601f016020809104026020016040519081016040528093929190818152602001838380828437600081840152601f19601f820116905080830192505050505050509192919290505050610f93565b604051808373ffffffffffffffffffffffffffffffffffffffff1673ffffffffffffffffffffffffffffffffffffffff1681526020018281526020019250505060405180910390f35b6102aa6004803603602081101561020757600080fd5b810190808035906020019064010000000081111561022457600080fd5b82018360208201111561023657600080fd5b8035906020019184600183028401116401000000008311171561025857600080fd5b91908080601f016020809104026020016040519081016040528093929190818152602001838380828437600081840152601f19601f820116905080830192505050505050509192919290505050611099565b604051808373ffffffffffffffffffffffffffffffffffffffff1673ffffffffffffffffffffffffffffffffffffffff1681526020018281526020019250505060405180910390f35b6103cc6004803603604081101561030957600080fd5b81019080803573ffffffffffffffffffffffffffffffffffffffff1690602001909291908035906020019064010000000081111561034657600080fd5b82018360208201111561035857600080fd5b8035906020019184600183028401116401000000008311171561037a57600080fd5b91908080601f016020809104026020016040519081016040528093929190818152602001838380828437600081840152601f19601f82011690508083019250505050505050919291929050505061119f565b005b610487600480360360208110156103e457600080fd5b810190808035906020019064010000000081111561040157600080fd5b82018360208201111561041357600080fd5b8035906020019184600183028401116401000000008311171561043557600080fd5b91908080601f016020809104026020016040519081016040528093929190818152602001838380828437600081840152601f19601f8201169050808301925050505050505091929192905050506114ca565b604051808373ffffffffffffffffffffffffffffffffffffffff1673ffffffffffffffffffffffffffffffffffffffff1681526020018281526020019250505060405180910390f35b610589600480360360208110156104e657600080fd5b810190808035906020019064010000000081111561050357600080fd5b82018360208201111561051557600080fd5b8035906020019184600183028401116401000000008311171561053757600080fd5b91908080601f016020809104026020016040519081016040528093929190818152602001838380828437600081840152601f19601f8201169050808301925050505050505091929192905050506115d0565b6040518080602001828103825283818151815260200191508051906020019080838360005b838110156105c95780820151818401526020810190506105ae565b50505050905090810190601f1680156105f65780820380516001836020036101000a031916815260200191505b509250505060405180910390f35b6106bd6004803603602081101561061a57600080fd5b810190808035906020019064010000000081111561063757600080fd5b82018360208201111561064957600080fd5b8035906020019184600183028401116401000000008311171561066b57600080fd5b91908080601f016020809104026020016040519081016040528093929190818152602001838380828437600081840152601f19601f8201169050808301925050505050505091929192905050506116de565b604051808373ffffffffffffffffffffffffffffffffffffffff1673ffffffffffffffffffffffffffffffffffffffff1681526020018281526020019250505060405180910390f35b6107bf6004803603602081101561071c57600080fd5b810190808035906020019064010000000081111561073957600080fd5b82018360208201111561074b57600080fd5b8035906020019184600183028401116401000000008311171561076d57600080fd5b91908080601f016020809104026020016040519081016040528093929190818152602001838380828437600081840152601f19601f8201169050808301925050505050505091929192905050506117e4565b604051808373ffffffffffffffffffffffffffffffffffffffff1673ffffffffffffffffffffffffffffffffffffffff1681526020018281526020019250505060405180910390f35b6108c16004803603602081101561081e57600080fd5b810190808035906020019064010000000081111561083b57600080fd5b82018360208201111561084d57600080fd5b8035906020019184600183028401116401000000008311171561086f57600080fd5b91908080601f016020809104026020016040519081016040528093929190818152602001838380828437600081840152601f19601f8201169050808301925050505050505091929192905050506118ea565b604051808373ffffffffffffffffffffffffffffffffffffffff1673ffffffffffffffffffffffffffffffffffffffff1681526020018281526020019250505060405180910390f35b6109c36004803603602081101561092057600080fd5b810190808035906020019064010000000081111561093d57600080fd5b82018360208201111561094f57600080fd5b8035906020019184600183028401116401000000008311171561097157600080fd5b91908080601f016020809104026020016040519081016040528093929190818152602001838380828437600081840152601f19601f8201169050808301925050505050505091929192905050506119f0565b6040518080602001828103825283818151815260200191508051906020019080838360005b83811015610a035780820151818401526020810190506109e8565b50505050905090810190601f168015610a305780820380516001836020036101000a031916815260200191505b509250505060405180910390f35b610b1760048036036040811015610a5457600080fd5b81019080803573ffffffffffffffffffffffffffffffffffffffff16906020019092919080359060200190640100000000811115610a9157600080fd5b820183602082011115610aa357600080fd5b80359060200191846001830284011164010000000083111715610ac557600080fd5b91908080601f016020809104026020016040519081016040528093929190818152602001838380828437600081840152601f19601f820116905080830192505050505050509192919290505050611afe565b005b610bf260048036036040811015610b2f57600080fd5b81019080803573ffffffffffffffffffffffffffffffffffffffff16906020019092919080359060200190640100000000811115610b6c57600080fd5b820183602082011115610b7e57600080fd5b80359060200191846001830284011164010000000083111715610ba057600080fd5b91908080601f016020809104026020016040519081016040528093929190818152602001838380828437600081840152601f19601f820116905080830192505050505050509192919290505050611e29565b005b610ccd60048036036040811015610c0a57600080fd5b81019080803573ffffffffffffffffffffffffffffffffffffffff16906020019092919080359060200190640100000000811115610c4757600080fd5b820183602082011115610c5957600080fd5b80359060200191846001830284011164010000000083111715610c7b57600080fd5b91908080601f016020809104026020016040519081016040528093929190818152602001838380828437600081840152601f19601f820116905080830192505050505050509192919290505050612154565b005b610eb660048036036060811015610ce557600080fd5b8101908080359060200190640100000000811115610d0257600080fd5b820183602082011115610d1457600080fd5b80359060200191846001830284011164010000000083111715610d3657600080fd5b91908080601f016020809104026020016040519081016040528093929190818152602001838380828437600081840152601f19601f82011690508083019250505050505050919291929080359060200190640100000000811115610d9957600080fd5b820183602082011115610dab57600080fd5b80359060200191846001830284011164010000000083111715610dcd57600080fd5b91908080601f016020809104026020016040519081016040528093929190818152602001838380828437600081840152601f19601f82011690508083019250505050505050919291929080359060200190640100000000811115610e3057600080fd5b820183602082011115610e4257600080fd5b80359060200191846001830284011164010000000083111715610e6457600080fd5b91908080601f016020809104026020016040519081016040528093929190818152602001838380828437600081840152601f19601f82011690508083019250505050505050919291929050505061247f565b005b610f9160048036036040811015610ece57600080fd5b81019080803573ffffffffffffffffffffffffffffffffffffffff16906020019092919080359060200190640100000000811115610f0b57600080fd5b820183602082011115610f1d57600080fd5b80359060200191846001830284011164010000000083111715610f3f57600080fd5b91908080601f016020809104026020016040519081016040528093929190818152602001838380828437600081840152601f19601f8201169050808301925050505050505091929192905050506128aa565b005b6000806005836040518082805190602001908083835b60208310610fcc5780518252602082019150602081019050602083039250610fa9565b6001836020036101000a038019825116818451168082178552505050505050905001915050908152602001604051809103902060000160009054906101000a900473ffffffffffffffffffffffffffffffffffffffff166005846040518082805190602001908083835b602083106110595780518252602082019150602081019050602083039250611036565b6001836020036101000a03801982511681845116808217855250505050505090500191505090815260200160405180910390206002015491509150915091565b6000806002836040518082805190602001908083835b602083106110d257805182526020820191506020810190506020830392506110af565b6001836020036101000a038019825116818451168082178552505050505050905001915050908152602001604051809103902060000160009054906101000a900473ffffffffffffffffffffffffffffffffffffffff166002846040518082805190602001908083835b6020831061115f578051825260208201915060208101905060208303925061113c565b6001836020036101000a03801982511681845116808217855250505050505090500191505090815260200160405180910390206002015491509150915091565b3373ffffffffffffffffffffffffffffffffffffffff166004826040518082805190602001908083835b602083106111ec57805182526020820191506020810190506020830392506111c9565b6001836020036101000a038019825116818451168082178552505050505050905001915050908152602001604051809103902060000160009054906101000a900473ffffffffffffffffffffffffffffffffffffffff1673ffffffffffffffffffffffffffffffffffffffff16146112af576040517f08c379a000000000000000000000000000000000000000000000000000000000815260040180806020018281038252602d815260200180612c9e602d913960400191505060405180910390fd5b60405180606001604052808373ffffffffffffffffffffffffffffffffffffffff168152602001828152602001428152506005826040518082805190602001908083835b6020831061131657805182526020820191506020810190506020830392506112f3565b6001836020036101000a038019825116818451168082178552505050505050905001915050908152602001604051809103902060008201518160000160006101000a81548173ffffffffffffffffffffffffffffffffffffffff021916908373ffffffffffffffffffffffffffffffffffffffff16021790555060208201518160010190805190602001906113ac929190612bd5565b50604082015181600201559050507f18a8d9d1f1c4985592c3bf2c5a71fdc029869f330737b2c82d9825759218382633838342604051808573ffffffffffffffffffffffffffffffffffffffff1673ffffffffffffffffffffffffffffffffffffffff1681526020018473ffffffffffffffffffffffffffffffffffffffff1673ffffffffffffffffffffffffffffffffffffffff16815260200180602001838152602001828103825284818151815260200191508051906020019080838360005b8381101561148957808201518184015260208101905061146e565b50505050905090810190601f1680156114b65780820380516001836020036101000a031916815260200191505b509550505050505060405180910390a15050565b6000806001836040518082805190602001908083835b6020831061150357805182526020820191506020810190506020830392506114e0565b6001836020036101000a038019825116818451168082178552505050505050905001915050908152602001604051809103902060000160009054906101000a900473ffffffffffffffffffffffffffffffffffffffff166001846040518082805190602001908083835b60208310611590578051825260208201915060208101905060208303925061156d565b6001836020036101000a03801982511681845116808217855250505050505090500191505090815260200160405180910390206002015491509150915091565b60606006826040518082805190602001908083835b6020831061160857805182526020820191506020810190506020830392506115e5565b6001836020036101000a03801982511681845116808217855250505050505090500191505090815260200160405180910390206000018054600181600116156101000203166002900480601f0160208091040260200160405190810160405280929190818152602001828054600181600116156101000203166002900480156116d25780601f106116a7576101008083540402835291602001916116d2565b820191906000526020600020905b8154815290600101906020018083116116b557829003601f168201915b50505050509050919050565b6000806004836040518082805190602001908083835b6020831061171757805182526020820191506020810190506020830392506116f4565b6001836020036101000a038019825116818451168082178552505050505050905001915050908152602001604051809103902060000160009054906101000a900473ffffffffffffffffffffffffffffffffffffffff166004846040518082805190602001908083835b602083106117a45780518252602082019150602081019050602083039250611781565b6001836020036101000a03801982511681845116808217855250505050505090500191505090815260200160405180910390206002015491509150915091565b6000806003836040518082805190602001908083835b6020831061181d57805182526020820191506020810190506020830392506117fa565b6001836020036101000a038019825116818451168082178552505050505050905001915050908152602001604051809103902060000160009054906101000a900473ffffffffffffffffffffffffffffffffffffffff166003846040518082805190602001908083835b602083106118aa5780518252602082019150602081019050602083039250611887565b6001836020036101000a03801982511681845116808217855250505050505090500191505090815260200160405180910390206002015491509150915091565b6000806006836040518082805190602001908083835b602083106119235780518252602082019150602081019050602083039250611900565b6001836020036101000a038019825116818451168082178552505050505050905001915050908152602001604051809103902060020160009054906101000a900473ffffffffffffffffffffffffffffffffffffffff166000846040518082805190602001908083835b602083106119b0578051825260208201915060208101905060208303925061198d565b6001836020036101000a03801982511681845116808217855250505050505090500191505090815260200160405180910390206002015491509150915091565b60606006826040518082805190602001908083835b60208310611a285780518252602082019150602081019050602083039250611a05565b6001836020036101000a03801982511681845116808217855250505050505090500191505090815260200160405180910390206001018054600181600116156101000203166002900480601f016020809104026020016040519081016040528092919081815260200182805460018160011615610100020316600290048015611af25780601f10611ac757610100808354040283529160200191611af2565b820191906000526020600020905b815481529060010190602001808311611ad557829003601f168201915b50505050509050919050565b3373ffffffffffffffffffffffffffffffffffffffff166002826040518082805190602001908083835b60208310611b4b5780518252602082019150602081019050602083039250611b28565b6001836020036101000a038019825116818451168082178552505050505050905001915050908152602001604051809103902060000160009054906101000a900473ffffffffffffffffffffffffffffffffffffffff1673ffffffffffffffffffffffffffffffffffffffff1614611c0e576040517f08c379a000000000000000000000000000000000000000000000000000000000815260040180806020018281038252602d815260200180612c9e602d913960400191505060405180910390fd5b60405180606001604052808373ffffffffffffffffffffffffffffffffffffffff168152602001828152602001428152506003826040518082805190602001908083835b60208310611c755780518252602082019150602081019050602083039250611c52565b6001836020036101000a038019825116818451168082178552505050505050905001915050908152602001604051809103902060008201518160000160006101000a81548173ffffffffffffffffffffffffffffffffffffffff021916908373ffffffffffffffffffffffffffffffffffffffff1602179055506020820151816001019080519060200190611d0b929190612bd5565b50604082015181600201559050507f18a8d9d1f1c4985592c3bf2c5a71fdc029869f330737b2c82d9825759218382633838342604051808573ffffffffffffffffffffffffffffffffffffffff1673ffffffffffffffffffffffffffffffffffffffff1681526020018473ffffffffffffffffffffffffffffffffffffffff1673ffffffffffffffffffffffffffffffffffffffff16815260200180602001838152602001828103825284818151815260200191508051906020019080838360005b83811015611de8578082015181840152602081019050611dcd565b50505050905090810190601f168015611e155780820380516001836020036101000a031916815260200191505b509550505050505060405180910390a15050565b3373ffffffffffffffffffffffffffffffffffffffff166000826040518082805190602001908083835b60208310611e765780518252602082019150602081019050602083039250611e53565b6001836020036101000a038019825116818451168082178552505050505050905001915050908152602001604051809103902060000160009054906101000a900473ffffffffffffffffffffffffffffffffffffffff1673ffffffffffffffffffffffffffffffffffffffff1614611f39576040517f08c379a000000000000000000000000000000000000000000000000000000000815260040180806020018281038252602d815260200180612c9e602d913960400191505060405180910390fd5b60405180606001604052808373ffffffffffffffffffffffffffffffffffffffff168152602001828152602001428152506001826040518082805190602001908083835b60208310611fa05780518252602082019150602081019050602083039250611f7d565b6001836020036101000a038019825116818451168082178552505050505050905001915050908152602001604051809103902060008201518160000160006101000a81548173ffffffffffffffffffffffffffffffffffffffff021916908373ffffffffffffffffffffffffffffffffffffffff1602179055506020820151816001019080519060200190612036929190612bd5565b50604082015181600201559050507f18a8d9d1f1c4985592c3bf2c5a71fdc029869f330737b2c82d9825759218382633838342604051808573ffffffffffffffffffffffffffffffffffffffff1673ffffffffffffffffffffffffffffffffffffffff1681526020018473ffffffffffffffffffffffffffffffffffffffff1673ffffffffffffffffffffffffffffffffffffffff16815260200180602001838152602001828103825284818151815260200191508051906020019080838360005b838110156121135780820151818401526020810190506120f8565b50505050905090810190601f1680156121405780820380516001836020036101000a031916815260200191505b509550505050505060405180910390a15050565b3373ffffffffffffffffffffffffffffffffffffffff166003826040518082805190602001908083835b602083106121a1578051825260208201915060208101905060208303925061217e565b6001836020036101000a038019825116818451168082178552505050505050905001915050908152602001604051809103902060000160009054906101000a900473ffffffffffffffffffffffffffffffffffffffff1673ffffffffffffffffffffffffffffffffffffffff1614612264576040517f08c379a000000000000000000000000000000000000000000000000000000000815260040180806020018281038252602d815260200180612c9e602d913960400191505060405180910390fd5b60405180606001604052808373ffffffffffffffffffffffffffffffffffffffff168152602001828152602001428152506004826040518082805190602001908083835b602083106122cb57805182526020820191506020810190506020830392506122a8565b6001836020036101000a038019825116818451168082178552505050505050905001915050908152602001604051809103902060008201518160000160006101000a81548173ffffffffffffffffffffffffffffffffffffffff021916908373ffffffffffffffffffffffffffffffffffffffff1602179055506020820151816001019080519060200190612361929190612bd5565b50604082015181600201559050507f18a8d9d1f1c4985592c3bf2c5a71fdc029869f330737b2c82d9825759218382633838342604051808573ffffffffffffffffffffffffffffffffffffffff1673ffffffffffffffffffffffffffffffffffffffff1681526020018473ffffffffffffffffffffffffffffffffffffffff1673ffffffffffffffffffffffffffffffffffffffff16815260200180602001838152602001828103825284818151815260200191508051906020019080838360005b8381101561243e578082015181840152602081019050612423565b50505050905090810190601f16801561246b5780820380516001836020036101000a031916815260200191505b509550505050505060405180910390a15050565b6006816040518082805190602001908083835b602083106124b55780518252602082019150602081019050602083039250612492565b6001836020036101000a038019825116818451168082178552505050505050905001915050908152602001604051809103902060020160149054906101000a900460ff161561254f576040517f08c379a0000000000000000000000000000000000000000000000000000000008152600401808060200182810382526023815260200180612c7b6023913960400191505060405180910390fd5b60405180608001604052808481526020018381526020013373ffffffffffffffffffffffffffffffffffffffff168152602001600115158152506006826040518082805190602001908083835b602083106125bf578051825260208201915060208101905060208303925061259c565b6001836020036101000a0380198251168184511680821785525050505050509050019150509081526020016040518091039020600082015181600001908051906020019061260e929190612bd5565b50602082015181600101908051906020019061262b929190612bd5565b5060408201518160020160006101000a81548173ffffffffffffffffffffffffffffffffffffffff021916908373ffffffffffffffffffffffffffffffffffffffff16021790555060608201518160020160146101000a81548160ff02191690831515021790555090505060405180606001604052803373ffffffffffffffffffffffffffffffffffffffff168152602001828152602001428152506000826040518082805190602001908083835b602083106126fd57805182526020820191506020810190506020830392506126da565b6001836020036101000a038019825116818451168082178552505050505050905001915050908152602001604051809103902060008201518160000160006101000a81548173ffffffffffffffffffffffffffffffffffffffff021916908373ffffffffffffffffffffffffffffffffffffffff1602179055506020820151816001019080519060200190612793929190612bd5565b50604082015181600201559050507f88b0abac82df252936af769bf91535e49840feebcc6e2950ee1ae5c574c2e662338233604051808473ffffffffffffffffffffffffffffffffffffffff1673ffffffffffffffffffffffffffffffffffffffff168152602001806020018373ffffffffffffffffffffffffffffffffffffffff1673ffffffffffffffffffffffffffffffffffffffff168152602001828103825284818151815260200191508051906020019080838360005b8381101561286957808201518184015260208101905061284e565b50505050905090810190601f1680156128965780820380516001836020036101000a031916815260200191505b5094505050505060405180910390a1505050565b3373ffffffffffffffffffffffffffffffffffffffff166001826040518082805190602001908083835b602083106128f757805182526020820191506020810190506020830392506128d4565b6001836020036101000a038019825116818451168082178552505050505050905001915050908152602001604051809103902060000160009054906101000a900473ffffffffffffffffffffffffffffffffffffffff1673ffffffffffffffffffffffffffffffffffffffff16146129ba576040517f08c379a000000000000000000000000000000000000000000000000000000000815260040180806020018281038252602d815260200180612c9e602d913960400191505060405180910390fd5b60405180606001604052808373ffffffffffffffffffffffffffffffffffffffff168152602001828152602001428152506002826040518082805190602001908083835b60208310612a2157805182526020820191506020810190506020830392506129fe565b6001836020036101000a038019825116818451168082178552505050505050905001915050908152602001604051809103902060008201518160000160006101000a81548173ffffffffffffffffffffffffffffffffffffffff021916908373ffffffffffffffffffffffffffffffffffffffff1602179055506020820151816001019080519060200190612ab7929190612bd5565b50604082015181600201559050507f18a8d9d1f1c4985592c3bf2c5a71fdc029869f330737b2c82d9825759218382633838342604051808573ffffffffffffffffffffffffffffffffffffffff1673ffffffffffffffffffffffffffffffffffffffff1681526020018473ffffffffffffffffffffffffffffffffffffffff1673ffffffffffffffffffffffffffffffffffffffff16815260200180602001838152602001828103825284818151815260200191508051906020019080838360005b83811015612b94578082015181840152602081019050612b79565b50505050905090810190601f168015612bc15780820380516001836020036101000a031916815260200191505b509550505050505060405180910390a15050565b828054600181600116156101000203166002900490600052602060002090601f016020900481019282601f10612c1657805160ff1916838001178555612c44565b82800160010185558215612c44579182015b82811115612c43578251825591602001919060010190612c28565b5b509050612c519190612c55565b5090565b612c7791905b80821115612c73576000816000905550600101612c5b565b5090565b9056fe417373657420576974682054686973205555494420416c726561647920457869737473596f7520617265204e6f7420417574686f72697a656420746f205472616e736665722054686973204173736574a265627a7a72315820b3e303dc1bcf274085930b65d45c1c115ea48ebd57c9fb436752485eaf96bdf764736f6c63430005100032",
  "source": "pragma solidity ^0.5.0;\n \n   contract AssetTracker {\n    struct Asset {\n    string name;\n    string description;\n    address manufacturer;\n    bool initialized;    \n         }\n         \n    struct tracking {\n    address location;\n    string uuid;\n    uint time;\n          }\n    \n     struct man {\n    address location;\n    string uuid;\n    uint time;\n          }      \n         \n    struct stock {\n    address location;\n    string uuid;\n    uint time;\n          } \n    struct whole {\n    address location;\n    string uuid;\n    uint time;\n          }\n    struct retail {\n    address location;\n    string uuid;\n    uint time;\n          }\n    struct enduser {\n    address location;\n    string uuid;\n    uint time;\n          }\n     \n    \n   \n    \n    mapping(string => tracking) locations;\n    mapping(string => man) manuf;\n    mapping(string => stock) Stocks;\n    mapping(string => whole) wholes;\n    mapping(string => retail) retails;\n    mapping(string => enduser) end;\n  \n    mapping(string  => Asset) private assetStore;\n\n      event AssetCreate(address manufacturer, string uuid, address location);\n      event AssetTransfer(address from, address to, string uuid, uint time);\n       \n      function createAsset(string memory name, string memory description, string memory uuid) public {\n      require(!assetStore[uuid].initialized, \"Asset With This UUID Already Exists\");\n        \n      assetStore[uuid] = Asset(name, description, msg.sender,true);\n      locations[uuid] = tracking(msg.sender, uuid, now);\n      emit AssetCreate(msg.sender, uuid, msg.sender);\n                }\n                \n       \n      function manu(address to, string memory uuid) public {\n         require(locations[uuid].location==msg.sender, \"You are Not Authorized to Transfer This Asset\");\n         \n        manuf[uuid]= man(to, uuid, now);\n        emit AssetTransfer(msg.sender, to, uuid, now);\n               }\n               \n         function stockhouse(address to, string memory uuid) public {\n         require(manuf[uuid].location==msg.sender, \"You are Not Authorized to Transfer This Asset\");\n         \n        Stocks[uuid]= stock(to, uuid, now);\n        emit AssetTransfer(msg.sender, to, uuid, now);\n               }\n               \n        function wholsaler(address to, string memory uuid) public {\n         require(Stocks[uuid].location==msg.sender, \"You are Not Authorized to Transfer This Asset\");\n         \n        wholes[uuid]= whole(to, uuid, now);\n        emit AssetTransfer(msg.sender, to, uuid, now);\n               }\n               \n               \n        function retailer(address to, string memory uuid) public {\n         require(wholes[uuid].location==msg.sender, \"You are Not Authorized to Transfer This Asset\");\n         \n        retails[uuid]= retail(to, uuid, now);\n        emit AssetTransfer(msg.sender, to, uuid, now);\n               }\n               \n        function Customer(address to, string memory uuid) public {\n         require(retails[uuid].location==msg.sender, \"You are Not Authorized to Transfer This Asset\");\n         \n        end[uuid]= enduser(to, uuid, now);\n        emit AssetTransfer(msg.sender, to, uuid, now);\n               }\n               \n               \n          function name(string memory uuid)public view returns (string memory) {\n \n               return (assetStore[uuid].name);\n               \n                   }\n          function Description(string memory uuid)public view returns (string memory) {\n \n               return (assetStore[uuid].description);\n               \n                   }\n            function Owner(string memory uuid)public view returns (address, uint) {\n \n               return (assetStore[uuid].manufacturer, locations[uuid].time);\n               \n            }\n                 \n            function manus(string memory uuid)public view returns (address, uint) {\n \n            return (manuf[uuid].location, manuf[uuid].time);\n                  }\n            function stocks(string memory uuid)public view returns (address, uint) {\n \n            return (Stocks[uuid].location, Stocks[uuid].time);\n                  }\n            function wholee(string memory uuid)public view returns (address, uint) {\n \n            return ( wholes[uuid].location,  wholes[uuid].time);\n                  }\n            function reta(string memory uuid)public view returns (address, uint) {\n \n            return (retails[uuid].location, retails[uuid].time);\n                  }\n            function Customers(string memory uuid)public view returns (address, uint) {\n \n            return ( end[uuid].location, end[uuid].time);\n                  }\n            \n          \n       }\n",
  "sourcePath": "C:/Users/TEJA/Desktop/workspace/Supplychain/contracts/AssetTracker.sol",
  "compiler": {
    "name": "solc",
    "version": "0.5.16+commit.9c3226ce.Emscripten.clang"
  },
  "schemaVersion": "3.2.4",
  "updatedAt": "2020-09-08T12:55:02.821Z",
  "networkType": "ethereum",
  "devdoc": {
    "methods": {}
  },
  "userdoc": {
    "methods": {}
  }
}